{
	"data": {
		"bytecode": {
			"linkReferences": {},
			"object": "6080604052600080546001600160a01b03191673d6801a1dffcd0a410336ef88def4320d6df1883e17905534801561003657600080fd5b50600054600180546001600160a01b0319166001600160a01b0390921691909117905561014c806100686000396000f3fe6080604052600436106100225760003560e01c806316f0115b1461002e57610029565b3661002957005b600080fd5b34801561003a57600080fd5b50610043610064565b60405161005b9c9b9a9998979695949392919061009f565b60405180910390f35b600454600554600654600754600854600954600a54600b54600c54600d54600e5460ff8216916001600160a01b03610100909104811691168c565b6000610180820190508d82528c60208301528b60408301528a60608301528960808301528860a08301528760c08301528660e083015285610100830152600385106100e657fe5b6101208201949094526001600160a01b03928316610140820152911661016090910152999850505050505050505056fea264697066735822122075a908df2960f4fa8183c7fed8ed188b96174e8dabe5bd6996658a122056504164736f6c63430007000033",
			"opcodes": "PUSH1 0x80 PUSH1 0x40 MSTORE PUSH1 0x0 DUP1 SLOAD PUSH1 0x1 PUSH1 0x1 PUSH1 0xA0 SHL SUB NOT AND PUSH20 0xD6801A1DFFCD0A410336EF88DEF4320D6DF1883E OR SWAP1 SSTORE CALLVALUE DUP1 ISZERO PUSH2 0x36 JUMPI PUSH1 0x0 DUP1 REVERT JUMPDEST POP PUSH1 0x0 SLOAD PUSH1 0x1 DUP1 SLOAD PUSH1 0x1 PUSH1 0x1 PUSH1 0xA0 SHL SUB NOT AND PUSH1 0x1 PUSH1 0x1 PUSH1 0xA0 SHL SUB SWAP1 SWAP3 AND SWAP2 SWAP1 SWAP2 OR SWAP1 SSTORE PUSH2 0x14C DUP1 PUSH2 0x68 PUSH1 0x0 CODECOPY PUSH1 0x0 RETURN INVALID PUSH1 0x80 PUSH1 0x40 MSTORE PUSH1 0x4 CALLDATASIZE LT PUSH2 0x22 JUMPI PUSH1 0x0 CALLDATALOAD PUSH1 0xE0 SHR DUP1 PUSH4 0x16F0115B EQ PUSH2 0x2E JUMPI PUSH2 0x29 JUMP JUMPDEST CALLDATASIZE PUSH2 0x29 JUMPI STOP JUMPDEST PUSH1 0x0 DUP1 REVERT JUMPDEST CALLVALUE DUP1 ISZERO PUSH2 0x3A JUMPI PUSH1 0x0 DUP1 REVERT JUMPDEST POP PUSH2 0x43 PUSH2 0x64 JUMP JUMPDEST PUSH1 0x40 MLOAD PUSH2 0x5B SWAP13 SWAP12 SWAP11 SWAP10 SWAP9 SWAP8 SWAP7 SWAP6 SWAP5 SWAP4 SWAP3 SWAP2 SWAP1 PUSH2 0x9F JUMP JUMPDEST PUSH1 0x40 MLOAD DUP1 SWAP2 SUB SWAP1 RETURN JUMPDEST PUSH1 0x4 SLOAD PUSH1 0x5 SLOAD PUSH1 0x6 SLOAD PUSH1 0x7 SLOAD PUSH1 0x8 SLOAD PUSH1 0x9 SLOAD PUSH1 0xA SLOAD PUSH1 0xB SLOAD PUSH1 0xC SLOAD PUSH1 0xD SLOAD PUSH1 0xE SLOAD PUSH1 0xFF DUP3 AND SWAP2 PUSH1 0x1 PUSH1 0x1 PUSH1 0xA0 SHL SUB PUSH2 0x100 SWAP1 SWAP2 DIV DUP2 AND SWAP2 AND DUP13 JUMP JUMPDEST PUSH1 0x0 PUSH2 0x180 DUP3 ADD SWAP1 POP DUP14 DUP3 MSTORE DUP13 PUSH1 0x20 DUP4 ADD MSTORE DUP12 PUSH1 0x40 DUP4 ADD MSTORE DUP11 PUSH1 0x60 DUP4 ADD MSTORE DUP10 PUSH1 0x80 DUP4 ADD MSTORE DUP9 PUSH1 0xA0 DUP4 ADD MSTORE DUP8 PUSH1 0xC0 DUP4 ADD MSTORE DUP7 PUSH1 0xE0 DUP4 ADD MSTORE DUP6 PUSH2 0x100 DUP4 ADD MSTORE PUSH1 0x3 DUP6 LT PUSH2 0xE6 JUMPI INVALID JUMPDEST PUSH2 0x120 DUP3 ADD SWAP5 SWAP1 SWAP5 MSTORE PUSH1 0x1 PUSH1 0x1 PUSH1 0xA0 SHL SUB SWAP3 DUP4 AND PUSH2 0x140 DUP3 ADD MSTORE SWAP2 AND PUSH2 0x160 SWAP1 SWAP2 ADD MSTORE SWAP10 SWAP9 POP POP POP POP POP POP POP POP POP JUMP INVALID LOG2 PUSH5 0x6970667358 0x22 SLT KECCAK256 PUSH22 0xA908DF2960F4FA8183C7FED8ED188B96174E8DABE5BD PUSH10 0x96658A12205650416473 PUSH16 0x6C634300070000330000000000000000 "
		},
		"gasEstimates": {
			"creation": {
				"codeDepositCost": "66400",
				"executionCost": "42622",
				"totalCost": "109022"
			},
			"external": {
				"pool()": "9408"
			}
		},
		"methodIdentifiers": {
			"pool()": "16f0115b"
		}
	},
	"abi": [
		{
			"inputs": [],
			"name": "pool",
			"outputs": [
				{
					"internalType": "uint256",
					"name": "totalPrice",
					"type": "uint256"
				},
				{
					"internalType": "uint256",
					"name": "totalPriceInUSD",
					"type": "uint256"
				},
				{
					"internalType": "uint256",
					"name": "deadline",
					"type": "uint256"
				},
				{
					"internalType": "uint256",
					"name": "totalShards",
					"type": "uint256"
				},
				{
					"internalType": "uint256",
					"name": "startTime",
					"type": "uint256"
				},
				{
					"internalType": "uint256",
					"name": "soldShardsValueInETH",
					"type": "uint256"
				},
				{
					"internalType": "uint256",
					"name": "soldShardsValueInUSD",
					"type": "uint256"
				},
				{
					"internalType": "uint256",
					"name": "lendingProfit",
					"type": "uint256"
				},
				{
					"internalType": "uint256",
					"name": "lendingProfitInUSD",
					"type": "uint256"
				},
				{
					"internalType": "enum NFTShardPoolC.PoolStatus",
					"name": "status",
					"type": "uint8"
				},
				{
					"internalType": "address",
					"name": "ERC20Token",
					"type": "address"
				},
				{
					"internalType": "address payable",
					"name": "owner",
					"type": "address"
				}
			],
			"stateMutability": "view",
			"type": "function"
		},
		{
			"stateMutability": "payable",
			"type": "receive"
		}
	]
}